:1000000033C0000039C0000037C0000035C0000018
:1000100033C0000031C000002FC000002DC0000020
:100020002BC0000029C0000027C0000025C0000030
:1000300023C0000021C000001FC000001DC0000040
:100040001BC0000019C0000017C0000015C0000050
:1000500013C0000011C000000FC000000DC0000060
:100060000BC0000009C0000011241FBECFEFD8E074
:10007000DEBFCDBF09D077C0C3CF83B183FB882754
:1000800080F991E08927089514D068D01BB8C0E4A6
:100090000CC0CBB964E670E080E090E043D01BB8C0
:1000A00064E670E080E090E03DD0E7DF8111F1CFC1
:1000B000FCCF8FEF8AB914B8089510926E0016BC69
:1000C00082E084BD089585B5826085BD089516BC23
:1000D000A99BFECFA99A08958F929F92AF92BF924B
:1000E000CF92DF92EF92FF92611571058105910524
:1000F00081F04B015C01C12CD12C7601E8DF8FEF40
:10010000C81AD80AE80AF80A8C149D04AE04BF0481
:10011000A9F7FF90EF90DF90CF90BF90AF909F90A6
:100120008F9008950F931F93DC01CB01880F991FC7
:10013000AA1FBB1F8C019D01000F111F221F331F1F
:10014000000F111F221F331FBC01CD01600F711F53
:10015000821F931FC1DF1F910F910895AEDF8FEBB8
:0A01600087BDB1CF0895F894FFCFDA
:00000001FF
